:020000040000FA
:100000000C945E000C9486000C9486000C94860080
:100010000C9486000C9486000C9486000C94860048
:100020000C9486000C9486000C9486000C94860038
:100030000C9486000C9486000C9486000C94860028
:100040000C944C200C9486000C94BC200C949620AC
:100050000C9486000C9486000C9486000C94860008
:100060000C9486000C948600000000080002010039
:100070000003040700000000000000000000000072
:10008000250028002B0000000000240027002A0083
:10009000040404040404040402020202020203032E
:1000A0000303030301020408102040800102040836
:1000B00010200102040810208221502411241FBEA8
:1000C000CFEFD8E0DEBFCDBF12E0A0E0B1E0E2E0CC
:1000D000F2E502C005900D92AC37B107D9F726E0E2
:1000E000ACE7B2E001C01D92AD3CB207E1F710E011
:1000F000CDE5D0E004C02197FE010E94F526CC3565
:10010000D107C9F70E9429220C94F4280C9400000E
:1001100090E0FC01EC55FF4F249180579F4FFC016C
:100120008491882399F090E0880F991FFC01EA5789
:10013000FF4FA591B491FC01E458FF4F8591949134
:100140008FB7F894EC91E22BEC938FBF089590E079
:10015000FC01E859FF4F2491FC01EC55FF4F34910D
:10016000FC01E057FF4FE491EE23C9F0222339F060
:10017000233001F1A8F4213019F1223029F1F0E007
:10018000EE0FFF1FE458FF4FA591B4918FB7F8947D
:10019000EC91611126C030953E233C938FBF0895AA
:1001A0002730A9F02830C9F0243049F78091800029
:1001B0008F7D03C0809180008F7780938000DFCF98
:1001C00084B58F7784BDDBCF84B58F7DFBCF8091E5
:1001D000B0008F778093B000D2CF8091B0008F7D38
:1001E000F9CF3E2BDACF3FB7F8948091500390912E
:1001F0005103A0915203B091530326B5A89B05C0AB
:100200002F3F19F00196A11DB11D3FBFBA2FA92F95
:10021000982F8827BC01CD01620F711D811D911D92
:1002200042E0660F771F881F991F4A95D1F70895FE
:100230008F929F92AF92BF92CF92DF92EF92FF92F6
:100240004B015C010E94F3006B017C010E94F300F2
:100250006C197D098E099F09683E734081059105DF
:10026000A8F321E0821A9108A108B10888EEC80E0F
:1002700083E0D81EE11CF11C81149104A104B10497
:1002800029F7FF90EF90DF90CF90BF90AF909F90B5
:100290008F9008952FB7F89460914C0370914D039F
:1002A00080914E0390914F032FBF0895DC01ED9193
:1002B000FC910190F081E02D0994AF92BF92CF9212
:1002C000DF92EF92FF920F931F93CF93DF936C0116
:1002D0007B018B01040F151FEB015E01AE18BF08F7
:1002E000C017D10759F06991D601ED91FC910190A9
:1002F000F081E02DC6010995892B79F7C501DF91C1
:10030000CF911F910F91FF90EF90DF90CF90BF9012
:10031000AF900895FC01538D448D252F30E0842F3C
:1003200090E0821B930B541710F0CF96089501971D
:100330000895FC01918D828D981761F0A28DAE0F0A
:10034000BF2FB11D5D968C91928D9F5F9F73928F91
:1003500090E008958FEF9FEF0895FC01918D828DBD
:10036000981731F0828DE80FF11D858D90E008958A
:100370008FEF9FEF0895FC01918D228D892F90E0E2
:10038000805C9F4F821B91098F739927089584E8A1
:1003900095E00E94BB0121E0892B09F420E0822F27
:1003A000089580E090E0892B29F00E94C701811117
:1003B0000C9400000895FC01A48DA80FB92FB11D65
:1003C000A35ABF4F2C91848D90E001968F7399278B
:1003D000848FA689B7892C93A089B1898C91837069
:1003E00080648C93938D848D981306C00288F38962
:1003F000E02D80818F7D80830895EF92FF920F938F
:100400001F93CF93DF93EC0181E0888F9B8D8C8DC0
:1004100098131AC0E889F989808185FF15C09FB7B4
:10042000F894EE89FF896083E889F9898081837077
:10043000806480839FBF81E090E0DF91CF911F9126
:100440000F91FF90EF900895F62E0B8D10E00F5F47
:100450001F4F0F731127E02E8C8D8E110CC00FB61D
:1004600007FCFACFE889F989808185FFF5CFCE01B5
:100470000E94DB01F1CFEB8DEC0FFD2FF11DE35A54
:10048000FF4FF0829FB7F8940B8FEA89FB89808138
:100490008062CFCFCF93DF93EC01888D8823B9F0B2
:1004A000AA89BB89E889F9898C9185FD03C080817F
:1004B00086FD0DC00FB607FCF7CF8C9185FFF2CFFC
:1004C000808185FFEDCFCE010E94DB01E9CFDF9176
:1004D000CF9108958823E9F0A8E6B4E025E01496CA
:1004E0009C91149789130DC095E0899FF001112408
:1004F000E859FB4F848114968C93138212821482E4
:100500000895992331F0929FD0011124A859BB4F2F
:10051000E6CF08958823A1F090917905992381F081
:100520008F3F29F48091750590917605089595E0A7
:10053000899FF0011124E859FB4F8281938108952E
:1005400090E080E008958EBD00000DB407FEFDCF61
:100550008EB508951F93CF93DF93182FC62FD42FF6
:1005600060E08AE00E94A7008C2F8F71812B0E948F
:10057000A3028D2F0E94A30261E08AE0DF91CF9158
:100580001F910C94A700CF93DF93D82FD076909132
:1005900000019D17A1F0C82F43E06FE180EA0E949F
:1005A000AA024C2F50E085E0559547958A95E1F7D2
:1005B00043706FE180E80E94AA02D0930001DF91AE
:1005C000CF9108951F93CF93DF93C82F162FD72F66
:1005D0000E94C302412F6C2F80E40E94AA0261E0B6
:1005E0006C0F4D2F80E4DF91CF911F910C94AA02E4
:1005F000EF92FF920F931F93CF93DF938B017A01BA
:100600008F3F59F095E0899FE0011124C859DB4FD5
:1006100068817981600F711F0FC0609173057091BF
:100620007405600F711FC3E7D5E0611588E0780796
:1006300078F37850C3E7D5E080E00E94E2028A8137
:100640009B81801B910BE816F90608F4C701DF9126
:10065000CF911F910F91FF90EF900895EF92FF922D
:100660000F931F93CF93DF93EB0170E060E00E9444
:10067000F8028C0160E08AE00E94A7008AE30E94F1
:10068000A3027E01E00EF11EEC16FD0629F080E0CB
:100690000E94A3028993F8CF61E08AE00E94A7003C
:1006A000C801DF91CF911F910F91FF90EF900895B6
:1006B00060917105709172056115710529F06150A5
:1006C00071098CE00C94E2026FEF77E0FACFCF93E0
:1006D000DF93C82FD62F0E94C3024D2F6C2F80E4CA
:1006E000DF91CF910C94AA02CF93DF93D82FC62F1E
:1006F00060E08AE00E94A7008C2F8F718D2B0E94F2
:10070000A302C7FF03C080E00E94A30280E00E9412
:10071000A302C82F61E08AE00E94A7008C2FDF911E
:10072000CF910895CF93C82F0E94C3026C2F80E011
:10073000CF910C947403CF93DF93EB01682F84ED7A
:100740000E946703BE0186ED0E94E202CFE0D0E086
:100750008AEE0E94920380FF08C06AE070E080E0A9
:1007600090E00E941801219799F7DF91CF910895A9
:10077000CF93C62FBC0182E00E94E20260E08AE0D3
:100780000E94A7008AE70E94A3028C2F0E94A30266
:1007900061E08AE0CF910C94A700CF93BC0180E088
:1007A0000E94E20260E08AE00E94A7008AE30E94C1
:1007B000A30280E00E94A302C82F61E08AE00E94A9
:1007C000A7008C2FCF910895CF92DF92EF92FF92E6
:1007D0000F931F93CF93DF936C018B014130510531
:1007E00079F4CB010E94CD03682FC601DF91CF9130
:1007F0001F910F91FF90EF90DF90CF900C94B80372
:10080000EA01C60FD71F7E0181E0E81AF10880E1F6
:100810000E94E202B60184E10E94E2020115184042
:1008200048F4E11488E0F80628F07E0181E0E81A37
:1008300088E0F80AB70182E10E94E20240E16FE13C
:1008400080EA0E94AA0240E26FE180E80E94AA02C8
:100850006FE180E00E94740385FF07C061E070E0F3
:1008600080E090E00E941801F3CFDF91CF911F91BB
:100870000F91FF90EF90DF90CF900895CF92DF928D
:10088000EF92FF920F931F93CF93DF938C016091B0
:100890006804709169046150784EC12C98E1D92E9A
:1008A000E8E6F4E020E0D0E0C0E045E03481CB01B0
:1008B000332341F0439FC001112488599B4FDC0131
:1008C0008D919C91E080F1808E199F090280F381C7
:1008D000E02D8E1B9F0B8017910799F4B5E02B9F9D
:1008E000E0011124C859DB4FEDE6F4E081E02281FC
:1008F0003381232B09F453C035968F5F8533B9F7C5
:1009000044C00817190748F48C159D0530F4249F3E
:10091000E0011124C859DB4F6C01311121C020972F
:1009200019F7C8E6D4E085E0D82E8C81288139817A
:10093000EA80FB808823D9F0E20EF31E8D9DE00152
:100940001124C859DB4F68817981E616F70669F3EF
:100950004A815B81C7010E94E403F982E882E5CF06
:10096000349FF0011124E859FB4F232F9FCF809132
:10097000680490916904821B930B8E199F09815022
:10098000984E8017910708F0AFCF80E0DF91CF91AC
:100990001F910F91FF90EF90DF90CF9008952881E5
:1009A00039814A815B81240F351F31832083138372
:1009B00002839C8194838C83E9CF0F931F93DB0187
:1009C000E42FA80190E0EF3FE1F065E0E69FF00141
:1009D0001124E859FB4F60817181620F731F01C0C0
:1009E000785025E0289FF001299FF00D1124E85947
:1009F000FB4F808191818A0F9B1F1F910F910C9457
:100A0000E4036091730570917405620F731F6115A3
:100A1000E8E07E0728F7E3E7F5E0DDCFCF92DF924D
:100A2000EF92FF920F931F93CF93DF936B018A0195
:100A3000790195E0899FE0011124C859DB4F688155
:100A400079816C0D7D1D82E00E94E2020A80DB81CB
:100A5000C02DCC19DD09EC16FD0608F4E70160E0B5
:100A60008AE00E94A7008AE70E94A3027801EC0EA8
:100A7000FD1EE016F10631F0F80181918F010E9410
:100A8000A302F7CF61E08AE00E94A700CE01DF91C8
:100A9000CF911F910F91FF90EF90DF90CF9008952D
:100AA000DC011C96ED91FC91309731F086819781A5
:100AB000982789279827089590E080E00895CF939C
:100AC000DF93FC01EB01AC85BD851097A9F0129670
:100AD0009C91129713968C9113973C9111962C919F
:100AE00043E851E051834083328323839483858399
:100AF000CF01DF91CF91089583E891E091838083C6
:100B00001282138214821582F3CFCF93DF931F9248
:100B1000CDB7DEB7DC01ED91FC91048CF58DE02DB5
:100B200041E050E0BE016F5F7F4F0995181619062E
:100B300034F4898190E00F90DF91CF9108958FEF89
:100B40009FEFF9CFCF93DF93EC018A89882379F067
:100B50009A01AB016E857F850E940E052E853F852B
:100B6000280F391F3F872E87DF91CF91089590E09E
:100B700080E0FACFCF93DF931F92CDB7DEB76983C2
:100B8000DC01ED91FC910280F381E02D41E050E029
:100B9000BE016F5F7F4F09950F90DF91CF91089550
:100BA00080E00895CF93DF931F92CDB7DEB76983BE
:100BB000DC01ED91FC910280F381E02D41E050E0F9
:100BC000BE016F5F7F4F09950F90DF91CF91089520
:100BD000762767277627DC0115967C936E9314970A
:100BE000ED91FC910084F185E02D0994089590E049
:100BF00080E00895FB0141505109460F571FE4174B
:100C0000F50778F4208130E0322F22276181260F0A
:100C1000311D820F931F8217930708F401963296B5
:100C2000EECFE417F50751F4208130E0322F222770
:100C3000820F931F8217930708F401960895CF92AD
:100C4000DF92EF92FF920F931F93CF93DF93C82F02
:100C5000E090AF02F12CFE2CEE244091B002445102
:100C6000550BE40EF51E48E050E069EB72E0C70159
:100C70008C0F911D0E94FA0508E0C13129F0009106
:100C8000CD02069506950C7310E0A80161EC72E0A8
:100C90000E94FA05EC010E151F0508F049C0A701D6
:100CA000401B510B80917E0262E270E081FF02C026
:100CB00063E270E0600F711F80917F020E94F80272
:100CC00001977C0160E08AE00E94A7008AE30E940D
:100CD000A302D12CC12CCE14DF04B8F480E00E9412
:100CE000A302082F10E0102F002780E00E94A3022B
:100CF000800F912F911DC80FD91FC817D90708F46D
:100D0000219682E0C80ED11CE6CFEC14FD0461F4FC
:100D100080E00E94A30290E0982F8827C80FD91F77
:100D2000C817D90708F4219661E08AE00E94A7005D
:100D30009C2F8D2FCD2B11F48FEF9FEFDF91CF9153
:100D40001F910F91FF90EF90DF90CF90089544E1B5
:100D500050E06DEA72E090E080E00E94FA050097B2
:100D600021F098278927982708958FEF9FEF0895FE
:100D7000FF920F931F93CF93DF93C0917E02C1FF29
:100D800066C020917C0230E04FE952E061E070E003
:100D900080917F020E940E05CD7FC0937E02F0906D
:100DA0007F0280917905882309F444C085E0F89E8C
:100DB000F0011124E859FB4F00811181C281D381D8
:100DC000C00FD11F60E0C8010E94B803B80184E0E1
:100DD0000E94E202BE016850710986E00E94E202B0
:100DE0001AE0249740E86FE180E80E94AA0240E8F8
:100DF0006FE180EA0E94AA024AE06CE180EA0E9468
:100E0000AA0248E06FE180E80E94AA028CE10E94F9
:100E10009203082F8A70D1F348E06FE180EA0E94C4
:100E2000AA0201FF2DC0CE010E94CD0385FF02C0A2
:100E30001150C1F6C0E08F2D0E946A0210927F020D
:100E40008C2FDF91CF911F910F91FF900895C0914A
:100E50009702D0919802CE01089621F410927F0259
:100E6000C0E0EECF0E943E0480937F028823C1F34E
:100E70009E014FE952E061E070E00E940E058FCFC5
:100E8000C1E0D9CF0F931F93CF93DF93EC018C0177
:100E90000B5F1F4F89910E946A02FE0131971082F9
:100EA000C017D107B9F7DF91CF911F910F91089526
:100EB000CF93DF93EC0188810E946A02FE01CE018C
:100EC000049621812193E817F907D9F71C82DF9155
:100ED000CF910895CF93DF93EC01E881F981008CE5
:100EE000F18DE02D0995882339F08C859D8502963A
:100EF000DF91CF910C944207DF91CF9108950F932A
:100F00001F93CF93DF931F92CDB7DEB78C01DC0127
:100F1000ED91FC91008CF18DE02D09958823B1F0C5
:100F2000D8011C96ED91FC918281882379F041E0F3
:100F300050E0BE016F5F7F4F0E942E03898190E0D9
:100F40000F90DF91CF911F910F9108958FEF9FEF39
:100F5000F7CFCF93DF931F92CDB7DEB7DC01ED91D2
:100F6000FC910288F389E02D41E050E0BE016F5F03
:100F70007F4F09951816190634F4898190E00F9077
:100F8000DF91CF9108958FEF9FEFF9CF6F927F920E
:100F90008F929F92AF92BF92CF92DF92EF92FF9289
:100FA0000F931F93CF93DF938C014B01EA01DC0178
:100FB000ED91FC91008CF18DE02D0995882309F4C9
:100FC0007BC0D8011C96ED91FC918281882309F4A5
:100FD00076C07E018EE1682EBE016E197F09680D14
:100FE000791DD8011C96ED91FC91A70182810E9488
:100FF0002E036C01F801A484B584D50112967C906F
:10100000872D0E948A02C816D906E9F5EC18FD085A
:10101000C50102960E945807F801A485B585EC9198
:101020006E9EF0011124E951FC4F818D84FF09C0AF
:1010300011968C911197982F967019F488601196DB
:101040008C93D8011C96ED91FC911D9782818111A2
:101050002EC0818182FF05C011821D961C921E92B6
:101060001C97CE018E199F09DF91CF911F910F918F
:10107000FF90EF90DF90CF90BF90AF909F908F90B8
:101080007F906F900895B5E07B9EF0011124E859A0
:10109000FB4F808191818C0D9D1D91838083828186
:1010A00093818C199D0993838283CE01DDCFE11456
:1010B000F10409F091CFF9CF8FEF9FEFD5CF90E0FA
:1010C00080E0D2CFEF92FF920F931F93CF93DF93E5
:1010D000EC01E881F981008CF18DE02D09958823E0
:1010E000E1F00C851D85780182E0E80EF11C095FB6
:1010F0001F4FD0E0C0E0F70181917F010E948A027A
:10110000C80FD91FE016F106B1F7CE01DF91CF91DC
:101110001F910F91FF90EF900895D0E0C0E0F5CFC0
:10112000FC01448555854115510551F0FB0124858D
:1011300035852115310521F081E04217530709F06B
:1011400080E00895DC011C96ED91FC91309731F020
:101150008281811105C081818170089580E00895A8
:1011600081E00895DC01ED91FC91028CF38DE02D7E
:10117000099591E089270895DC01ED91FC91048C9B
:10118000F58DE02D0994CF92DF92EF92FF920F93AD
:101190001F93CF93DF93CDB7DEB7C254D1090FB6FB
:1011A000F894DEBF0FBECDBFFC0182819381A48184
:1011B000B58123968CAF9DAFAEAFBFAF239721E033
:1011C00023962FAF239723964CAD5DAD6EAD7FADCB
:1011D00023974BAB5CAB6DAB7EAB89AF9AAFABAF3C
:1011E000BCAF8DA79EA7AFA7B8AB28AB4DA55EA59A
:1011F0006FA578A94FA358A769A77AA72EAB4BA9CB
:101200005CA96DA97EA949A35AA36BA37CA38B8F6C
:101210009C8FAD8FBE8F2AA74FA158A569A57AA52F
:101220004D8B5E8B6F8B788F2CA349A15AA16BA13C
:101230007CA14F87588B698B7A8B89879A87AB877C
:10124000BC870E944A0166507F4F8F4F9F4F60932B
:10125000800570938105809382059093830580912A
:101260007905811145C08AE00E94880061E08AE02A
:101270000E94A7001FB7F89480917805811124C0BF
:10128000EAE9F0E08491EEEAF0E09491E82FF0E0F2
:10129000EE0FFF1FEA57FF4FA591B491EC91E923A0
:1012A00021F461E08AE00E94A7008AE00E948800A1
:1012B0008CB580618CBD8CB580648CBD8DE00E9446
:1012C00088008BE00E948800809178058F5F809372
:1012D00078051FBF8CB58C7F8CBD8DB581608DBDB1
:1012E00082E70E9492038F3F09F441C08093790501
:1012F0001092740510927305109276051092750580
:10130000E8E6F4E089E091E0DF019C011D922150C4
:101310003040E1F781E098E090936904809368049D
:101320004FEF60E08FEF0E94AA0262E070E080E081
:1013300090E00E94180162E370E080E090E00E947B
:101340001801109272051092710500E110E06DE134
:1013500080E00E94740381110DC00150110951F009
:101360006AE070E080E090E00E941801F0CF1092F7
:101370007905BECF70E060E088E00E94E20270E094
:1013800060E08CE00E94E2026FEF77E08AE00E946A
:10139000E20261EB88E30E9467036FE370E388E297
:1013A0000E94E20269EF77EF80E30E94E2026DE0C3
:1013B00070E080EC0E94E20242E362EC80E80E946E
:1013C000AA0262E17CE086EC0E94E20262E184EC27
:1013D0000E9467036CED75E08AEC0E94E202609166
:1013E000010184EE0E9467036091020185EE0E9474
:1013F00067036091030182EE0E946703609104011C
:1014000083EE0E9467036091050180EE0E946703EE
:101410006091060181EE0E94670360E071E080E167
:101420000E949B038FE10E94C30240EC6BE180E8C5
:101430000E94AA0244E06FE180E80E94AA0266E7E7
:1014400074E084E10E949B038091010180937A05FE
:101450008091020180937B058091030180937C053C
:101460008091040180937D058091050180937E0524
:101470008091060180937F051092600410925F04B2
:10148000109262041092610410926404109263043A
:1014900010926604109265041092000410921E04CB
:1014A00010923C0410925A0480E094E09093E6037A
:1014B0008093E5031092BE031092BD031092C903FE
:1014C0001092C8031092D4031092D3031092DF033A
:1014D0001092DE0384E0809367041092B8039BE0CF
:1014E00024E08091B803883008F44CC04D895E89AF
:1014F0008F8921E02A8BCF84D888E988FA88CB822B
:10150000DC82ED82FE826B857C85E985FA85F0932D
:101510005D03E0935C0370935F0360935E035093FD
:1015200059034093580390E0916090935B0380933C
:101530005A038FEF9FEF90935503809354038FEFDF
:1015400090E090935703809356032E838B819C8168
:10155000AD81BE818093820690938306A09384061A
:10156000B0938506CE5BDF4F0FB6F894DEBF0FBE9B
:10157000CDBFDF91CF911F910F91FF90EF90DF9042
:10158000CF900895899FF0011124E05AFC4FDF01AC
:10159000322F1D923A95E9F78F5F8093B803A1CF60
:1015A0000F931F93CF93DF93DC012091E5033091DC
:1015B000E6032F5F3F4F21158DE7380710F020E03D
:1015C00030E1522F432FE9EBF3E0EF0180E084306C
:1015D000A1F43093E6032093E50330E020E02430CB
:1015E000310599F484E080936704F0E0E0E0CF01F6
:1015F000DF91CF911F910F9108950C811D818F5F15
:101600002B960417150719F7D4CFC481D581C901CA
:1016100001963B96CD2B09F5209367048BE0829FC2
:10162000F001839FF00D1124E754FC4F5583448350
:1016300077836683109799F484E0DF011D928A9581
:10164000E9F78BE0829FD001839FB00D1124A7544E
:10165000BC4F80E418968C93CACF9C01C0CF8D916B
:101660009C9111979183808312968D919C91938385
:101670008283E7CF0F931F93CF93DF93EC018B010E
:101680008C859D85892B41F470E060E090E080E0DE
:101690000E94D00A9D878C87EC85FD8580E030977D
:1016A00049F0102701271027158304832E96D2872F
:1016B000C18781E0DF91CF911F910F910895CF9362
:1016C000DF93DC011C96ED91FC913097B1F0EC01B9
:1016D00015821482128611861D861C8689890E94B5
:1016E0006A0288890E946A028A890E946A022E968A
:1016F00086E0FE0111928A95E9F7DF91CF91089576
:10170000FC011382128288EE93E0A0E0B0E08483B3
:101710009583A683B78381E191E0918380831586C9
:1017200014863E9686E0DF011D928A95E9F70895BA
:10173000FC0180819181009711F00C949727089506
:10174000FB0101900020E9F73197AF01461B570BD1
:10175000DC01ED91FC910280F381E02D09948F92E0
:101760009F92AF92BF92EF92FF920F931F93CF93EE
:10177000DF93CDB7DEB7A1970FB6F894DEBF0FBEEB
:10178000CDBF7C01FA01CB0119A2223008F42AE076
:101790008E010F5D1F4F822E912CB12CA12CBF0109
:1017A000A50194010E94BB25F901CA016A300CF51C
:1017B000605DD8016E938D01232B242B252B79F7A7
:1017C00090E080E0109721F0BD01C7010E94A00BBE
:1017D000A1960FB6F894DEBF0FBECDBFDF91CF91BB
:1017E0001F910F91FF90EF90BF90AF909F908F90BF
:1017F0000895695CDECF8F929F92AF92BF92CF9295
:10180000DF92EF92FF920F931F93CF93DF937C01B0
:101810008B016C0182E0C80ED11C4701E5E08E0E01
:10182000911CD0E0C0E0F60141916F0150E070E002
:1018300060E02AE0C8010E94AF0B5C016EE2C801C3
:101840000E9456018A0D9B1DC80FD91FC814D904C8
:1018500051F7F701458150E070E060E02AE0C801EF
:101860000E94AF0B8C0F9D1FDF91CF911F910F91A5
:10187000FF90EF90DF90CF90BF90AF909F908F90B0
:1018800008952F923F924F925F926F927F928F9224
:101890009F92AF92BF92CF92DF92EF92FF921F93EF
:1018A000CF93DF93EC016A017B01722EAB019601AD
:1018B000CB01B6010E94F02665E871E0811126C0D7
:1018C00046015701E894B7F82FEF3FEF4FE75FE786
:1018D000C501B4010E94F02681110CC02FEF3FEF2B
:1018E0004FE75FE7C501B4010E94602469E871E039
:1018F000181664F02FEF3FEF4FE75FE4C701B60122
:101900000E94EB261816B4F46DE871E0CE01DF9169
:10191000CF911F91FF90EF90DF90CF90BF90AF904D
:101920009F908F907F906F905F904F903F902F90FF
:101930000C94A00B2FEF3FEF4FE75FECC701B60110
:101940000E94602487FDE0CF20E030E0A901C701BC
:10195000B6010E946024312C212C87FF09C06DE262
:10196000CE010E9456011C01F7FAF094F7F8F094AA
:1019700010E060E070E080E09FE3711641F020E04D
:1019800030E040E251E40E944A261F5FF6CFA701F3
:1019900096010E94DE252B013C010E94BC264B01D2
:1019A0005C012AE0BC01A401CE010E94AF0B7C01C6
:1019B000E20CF31C1123C1F1C501B4010E9465249E
:1019C0009B01AC01C301B2010E94DD254B015C010A
:1019D0006EE2CE010E945601E80EF91E115020F170
:1019E00020E030E040E251E4C501B4010E94C62489
:1019F0002B013C010E94BC264B01B12CA12C2AE0FA
:101A0000B501A401CE010E94AF0BE80EF91EC5017D
:101A1000B4010E9465249B01AC01C301B2010E9484
:101A2000DD254B015C01DACFC701DF91CF911F911A
:101A3000FF90EF90DF90CF90BF90AF909F908F90EE
:101A40007F906F905F904F903F902F9008950F93ED
:101A50001F93CF93DF93EC010E94A00B8C0161E9EF
:101A600071E0CE010E94A00B800F911FDF91CF91FA
:101A70001F910F9108950F931F93CF93DF93EC0164
:101A8000FB014481558160817181E881F981028087
:101A9000F381E02D09958C0161E971E0CE010E948E
:101AA000A00B800F911FDF91CF911F910F9108958F
:101AB0000C94A00BEF92FF920F931F93CF93DF93A1
:101AC000FC011092B803C0E6D3E0DE0130E020E074
:101AD0002830310569F490E0983009F042C0109246
:101AE0009602109295021092B80320E633E044C0AB
:101AF000CD01805693400D911C9111970115110550
:101B000061F112964D915C9113974115510529F1A0
:101B1000E080F1800E151F0501F502811381401749
:101B20005107D9F42093B803DC01AC59BC4F86E0CF
:101B3000FB0101900D928A95E1F78BE0829FF00105
:101B4000839FF00D1124E05AFC4F1286DF91CF9154
:101B50001F910F91FF90EF9008952F5F3F4F1B96BD
:101B6000B7CF9E0148815981452BB1F44A815B81F1
:101B7000452B91F49093B80384E0D90101900D9224
:101B80008A95E1F7D901149686E0FB0101900D9248
:101B90008A95E1F7F901D9CF9F5F2B969DCFEF9200
:101BA000FF920F931F93CF93DF9300D000D000D00C
:101BB000CDB7DEB74091BD025091BE024F3F5407F2
:101BC00031F48091BF029091C002019619F1809189
:101BD0005C0390915D0360915403709155039B01E8
:101BE00020953095282B392B42175307A9F52091C2
:101BF00056033091570320953095E0915E03F091A4
:101C00005F032E2B3F2BE091BF02F091C002E21741
:101C1000F30711F586E0E5E3F1E0AFE9B2E001900A
:101C20000D928A95E1F786E0EAE7F5E0A5EAB2E0F1
:101C300001900D928A95E1F788E090E09093AC02D4
:101C40008093AB0280919702909198020E969093A8
:101C5000980280939702A5C084279527862397230F
:101C6000892B99F42091BF023091C00280915E03CC
:101C700090915F03822793276091560370915703D9
:101C800086239723892B09F499C08091580390915A
:101C9000590390939C0280939B0280915A039091E8
:101CA0005B0390939E0280939D02E0909B02F090D4
:101CB0009C0200919D0210919E02E0E6F3E080E01C
:101CC000883009F084C08093B80346E050E06FEF9D
:101CD00070E08FE992E00E94E62886E0EFEBF2E008
:101CE000DF01282F1D922A95E9F7EAE7F5E0A5EA3A
:101CF000B2E0982F01900D929A95E1F7EAE7F5E0AE
:101D0000A5EBB2E0982F01900D929A95E1F7F09231
:101D1000C602E092C5021093C8020093C702209148
:101D20005C0330915D033093BC022093BB02209191
:101D30005E0330915F033093BE022093BD0220E02A
:101D400031E03093B4022093B3023093AE0220937B
:101D5000AD0228E030E03093B0022093AF028093D0
:101D6000B10294E09093B20228E036E03093AC02E6
:101D70002093AB0225ED32E030939A022093990232
:101D80002AE230E03093980220939702BE016F5F01
:101D90007F4FDB011D928A95E9F78BE992E00E9463
:101DA0005A0D26960FB6F894DEBF0FBECDBFDF9159
:101DB000CF911F910F91FF90EF90089550939C0247
:101DC00040939B0230939E0220939D026ECF208110
:101DD0003181E216F306E1F4228133810217130701
:101DE000B9F49481911103C09581992329F08093CE
:101DF000B803349686E011CF96819111F8CF978180
:101E00009111F5CF90859111F2CF91859111EFCF7E
:101E10008F5F3B9655CFCF93DF93EC010E94CF0DA0
:101E200080919702909198028A9759F410927F02BC
:101E300080917E028D7F80937E02DF91CF910C9402
:101E4000B8060E94B8061D821C82DF91CF910895CA
:101E50009C01AB01709394026093930216161706CF
:101E600054F480919102909192028217930719F095
:101E7000B9010C94DD280895EF92FF920F931F9300
:101E8000CF93DF93E0918802F0918902C185D285DA
:101E9000209709F456C0E0908E02E1FE1FC08A81AF
:101EA00081111CC08091C1029091C20297838683E8
:101EB0008091B9029091BA02918380838091BB0294
:101EC0009091BC02938382838091C5029091C60257
:101ED000982789279827089709F51A82E3FE31C0C9
:101EE0008D81882371F18C8180937F0280917E02A5
:101EF000826080937E028AE280937C02688179818D
:101F00006B5271098091990290919A02DF91CF9161
:101F10001F910F91FF90EF900C94280F0E943E04A8
:101F2000F82E8A838823D1F20E948A028C012AE249
:101F300030E040917D0270E060E08F2D0E94DD0472
:101F4000CDCFDF91CF911F910F91FF90EF9008952A
:101F5000AF92BF92CF92DF92EF92FF920F931F93B7
:101F6000CF93DF93E0908F02F0909002F701C48D41
:101F7000D58DD0908E02209761F5D6FC03C0F12C50
:101F8000E12CC1C0E3E0F3E090E080E02181211189
:101F90007CC022E1289FE001299FD00D1124CD5F54
:101FA000DC4FFE0111922A95E9F7C701875E934045
:101FB000959587954FEE5EEE849F9001859F300D3D
:101FC000949F300D1124288381E08983F701D58FF8
:101FD000C48FD1FE32C00091970210919802011572
:101FE000110559F189818823A9F181FD26C05E017F
:101FF000F2E0AF0EB11CC12CF50181915F0181119E
:102000004BC0C8010E943E04F501319780838823AC
:1020100009F442C02091990230919A022F5932401E
:1020200040917D0270E060E00E94DD04F4E0CF1298
:1020300004C0F701818D8061818F898183FF0AC08F
:10204000877F89838D2D826080938E02F701818D39
:102050008F7E818F80918E0284FD04C087FD02C037
:1020600085FF26C0CE0107960E9442078A818823F9
:10207000E9F0F7018481958198878F838981846055
:102080008983F701158E148E7ACF0196729684306B
:10209000910509F07BCF73CFC394F5E0CF12ACCF9D
:1020A00080917E028E7F80937E02C3CF1982E9CF1A
:1020B00080FF3FC0CE0107960E9458078F8188237A
:1020C000D1F19885911145C0EC84FD84E114F104AF
:1020D00009F455CF95E0899FF0011124E859FB4F91
:1020E000F382E2820091990210919A020F591240F4
:1020F00000937C021127C80108968E0D9F1D009742
:1021000079F510927F02B7018091990290919A021D
:102110000E94280FF0929802E0929702DF91CF91EF
:102120001F910F91FF90EF90DF90CF90BF90AF90F5
:1021300008958C7019F6898181FF21CF8F818111DB
:1021400024C01982F701158E148E80E180938E02CF
:1021500016CF0E948A027C01892B09F410CFC2CFCE
:102160000E943E0480937F02882369F2B8016F5F6A
:102170007F4F870130E020E04F810E94DD04809195
:102180007E02826080937E02BECFF701818D8061E6
:10219000818FF5CEAF92BF92CF92DF92EF92FF92F6
:1021A0001F93CF93DF93843009F458C1C0918F02FD
:1021B000D091900225ED32E030939A02209399025B
:1021C00030939202209391028330C9F4898D8F70ED
:1021D000833009F044C088899989892B09F03FC070
:1021E00088E080938E020E94A80F80918E0285FF66
:1021F00013C61092940210929302198E51C082302D
:1022000009F005C180918D028F5F80938D0281114D
:1022100013C080918C028F5F80938C0281110CC05F
:1022200080918B028F5F80938B02811105C080911A
:102230008A028F5F80938A0210929802109297020E
:102240001092940210929302898D982F9D7F953061
:1022500059F48A8D8F5F8A8F883709F4198E10920E
:1022600098021092970231C28823C9F328893989CC
:10227000232B09F4C7C09A8D2FEF290F2A8F9111B4
:10228000EECF9B8D983031F02FEF280F223050F495
:10229000953041F4198E80E880938E020E94A80F39
:1022A00084E184C0392F953008F034E023E001C088
:1022B000220F3A95EAF72A8F9F5F9B8F8F708330AA
:1022C00009F47DC008F06AC0813009F406C4823088
:1022D00031F61092CE028091CE0282608093CE02BF
:1022E00082E08093D50294E09093D6028093D70247
:1022F0001092D8028CE290E090939802809397021B
:1023000080E68093CD0288858093C9028985809379
:10231000CA028A858093CB028B858093CC028C8500
:102320008093C5028D858093C6028E858093C702F7
:102330008F858093C80286E08093B6028C819D8150
:102340009093C2028093C1028E819F819093C402B8
:102350008093C30280915C0390915D039093BA02D5
:102360008093B90280915E0390915F039093BC02C9
:102370008093BB02888199819093BE028093BD02B5
:102380008A819B819093C0028093BF02898D84FFD4
:10239000C9C51092D0021092CF02D5C2863029F062
:1023A000883019F0843009F05ACF81E18093CE0251
:1023B00088E290E0909398028093970221C084E095
:1023C00080938E020E94A80F8091910290919202B8
:1023D00090939A0280939902809193029091940233
:1023E000892B09F44AC588899989009709F445C55C
:1023F0008896909398028093970288E18093CE020A
:1024000080E57FCF8F70833009F029CFE9CE85300A
:1024100009F0A9C0E0918802F09189028481958138
:10242000892B09F41CCF1092900210928F0289EC34
:1024300092E090939A0280939902909392028093F3
:1024400091021092940210929302109298021092AC
:10245000970288E080938E020E943C0F8091930245
:1024600090919402009709F4FACE9C01245E3F4FAC
:1024700030939802209397023093AF022093B002DA
:10248000E0918802F091890220852093B50221E134
:102490002093B60208969827892798279093C6021A
:1024A0008093C5021092C8021092C7028481958160
:1024B0009093C2028093C102868197819093C40257
:1024C0008093C30280915C0390915D039093BA0264
:1024D0008093B90280915E0390915F039093BC0258
:1024E0008093BB02808191819093BE028093BD0254
:1024F000828193819093C0028093BF0285ED92E028
:1025000090939A028093990281E10E941F06809520
:102510009095009709F45BC19093C8028093C7021D
:1025200085E48093AD021092AE021092B402109234
:10253000B302809180029091810201969093810272
:10254000809380029093B1028093B2021092B802FD
:102550001092B7020E94A706809590959093B802BA
:102560008093B702B2C08091AD02853409F077CE76
:10257000C090AF02D12CDC2CCC248091B002C80ECC
:10258000D11C80919702909198028C159D0508F4BA
:1025900066CED0929802C09297028091B3028F7358
:1025A00009F05DCE1091B402111159CEA0905C03D8
:1025B000B0905D03A114B10439F480915E03909151
:1025C0005F03892B09F441C02091BD023091BE0206
:1025D0008091B602813149F52F3F320739F480915D
:1025E000BF029091C002019609F47DC0809154030E
:1025F00090915503809590958A299B29821793077E
:10260000A1F4809156039091570380959095409145
:102610005E0350915F03842B952B4091BF02509134
:10262000C0024817590709F45EC0A216B30609F0A4
:1026300016CE2091BF023091C00280915E0390912E
:102640005F032817390709F00ACE0E94A7060196F2
:1026500009F005CE8091B602863009F4BBC0813105
:1026600009F441C0813009F0FACD8091C10288306F
:1026700009F0F5CD1092C1028091C3029091C4027D
:10268000873F4FEF940768F109969093C4028093B7
:10269000C3028091B9029091BA029093BE028093D6
:1026A000BD028091BB029091BC029093C0028093C6
:1026B000BF02B092BA02A092B90280915E039091DB
:1026C0005F039093BC028093BB0210928E02DF9155
:1026D000CF911F91FF90EF90DF90CF90BF90AF9080
:1026E00008950896D2CF8CE1C81AD108D0929802EA
:1026F000C092970289EC92E090939A02809399029B
:102700008091C7029091C802892BE1F44091C302E5
:102710005091C4026091C1027091C202A091B902AD
:10272000B091BA02C091BB02D091BC02E9EBF3E0D8
:1027300025EE33E02E173F0761F430938902209392
:1027400088028DCD81E10E941F06019609F087CD98
:10275000DDCF848195810097C1F184179507A9F594
:1027600086819781009719F08617970771F5808108
:1027700091810097D1F4E280F380EF28F1F4F09397
:102780008902E09388021092900210928F0282E0F8
:1027900080938E0289EC92E0909392028093910252
:1027A000109294021092930257CE8F3F980729F40B
:1027B000E280F380EF20E09411F38A179B0729F45D
:1027C00082819381C817D907D1F23B96B3CF8FEF9F
:1027D0009FEFA2CE86E00E941F06019609F03FCD32
:1027E0004091C3025091C4026091C1027091C20233
:1027F0008091B9029091BA02E091BB02F091BC02C3
:10280000C7EED3E0298D2223A9F0AC81BD814A1700
:102810005B0781F4AE81BF816A177B0759F4A881F9
:10282000B9818A179B0731F4AA81BB81EA17FB079C
:1028300009F45BC16E9624E0C134D20719F310F39A
:102840008091CE028F73823061F45093870240935F
:102850008602EFE5F4E080E0843009F091C08093D7
:1028600067048091CE0282FDFACC84E18093CE028F
:1028700088E290E0909398028093970280E580939D
:10288000CD023091C8028091CC028093C802209181
:10289000C7028091CB028093C7022093CB02909114
:1028A000C6028091CA028093C6029093CA028091A8
:1028B000C502809367044091C9024093C50280938A
:1028C000C9023F5F3093CC0231110DC02F5F2093BE
:1028D000CB02211108C09F5F9093CA02911103C0DF
:1028E0008F5F8093C9028091C1029091C202909340
:1028F0008702809386022091C3023091C4023093F4
:10290000C2022093C1029093C4028093C3028091BB
:10291000B9029091BA029093BE028093BD02809159
:10292000BB029091BC029093C0028093BF02B09210
:10293000BA02A092B90280915E0390915F039093D6
:10294000BC028093BB0280E48093B5028091970221
:10295000909198029093AF028093B0021092D402AB
:102960001092D3021092D2021092D10286E00E94FD
:102970001F06809590959093D2028093D102D0CD7E
:10298000219131918F5F4217530709F065CF109263
:102990006704E7EEF3E090E080E0D0E0C0E0843050
:1029A000910531F484E080936704209781F457CC3B
:1029B0003E2F2F2FA18DA11163C0809367042EE1BC
:1029C000289FE001299FD00D1124C951DC4FD093DD
:1029D0009002C0938F0283E08A8F888F1E8A84E0E2
:1029E0008F8B1B8E5D834C837F836E838091B902B6
:1029F0009091BA02998388838091BB029091BC0226
:102A00009B838A8381E0898F80918A028C87809161
:102A10008B028D8780918C028E8780918D028F87AB
:102A200081E090E0998B888B8091C8028B878091A0
:102A3000C7028A878091C60289878091C5028887EC
:102A400081E090E00E9421218091CD02982F907F1B
:102A5000913508F442C082958F708550990B880F8C
:102A6000991F880F991FE12FF0E0E817F9072CF460
:102A7000E156FD4F36A9311112C0109367042DC0E5
:102A8000A73031F4209731F0B28DAA8DAB1710F03A
:102A90003C2F2D2F01967E96C32FD22F80CF313021
:102AA00011F41F5FE0CF27A93230D9F42430C9F4E4
:102AB0001093670480AD91AD89279827892790935B
:102AC000870280938602813042E0940710F080E014
:102AD00092E09B8B8A8B9D8B8C8B80E18093CE02C6
:102AE000FACB222351F2120FBECFD0939002C093A3
:102AF0008F0210928E029091CE0292FF07C0198E23
:102B000080E280938E020E94A80FA9CB8091CD0213
:102B100082958F70880F880F80936704C81AD10838
:102B2000760184E1E81AF108F0929802E0929702A7
:102B30002F70223021F4892F8F738231D1F0E1146C
:102B4000F10419F4892F8370A1F039852A858B85CA
:102B50005091C50248855413C0C14091C602431329
:102B6000BCC13091C7023213B8C12091C8022813EA
:102B7000B4C194FF49C0688979896115710509F468
:102B800043C0CE010C960E94EE203091C902809184
:102B90008202381339C02091CA028091830228131F
:102BA00033C09091CB028091840298132DC0809104
:102BB000CC0240918502841327C03C872D879E87D5
:102BC0008F87988D8B8D811118C08E892A8D921BCD
:102BD000282F269526952695921B890F8E8B97FD7B
:102BE00091952F89322F36953695231B920F9F8B07
:102BF000869586958695890F888F81E080938E02D1
:102C0000888D8A8F198A188A298DE22FEF70E150FA
:102C1000E83008F024CBF0E0E05FF94E0C94F526A4
:102C2000181631169B16501779178A176D17491702
:102C300080918E0280FF13CB83E0898F80E48093A4
:102C40008E02198A188AE114F10431F082E480932B
:102C50008E02C7010E9421211092940210929302C9
:102C6000C2CA80918E0280FF5FC08091CE028F73B6
:102C7000823109F059C08091CD02982F907F913513
:102C800098F182958F708550990B880F991F880F46
:102C9000991FE12FF0E0E817F9072CF4E156FD4FFA
:102CA00036A9311103C0109367041EC0313011F4EE
:102CB0001F5FEFCF27A9323099F5243089F51093A3
:102CC000670480AD91AD8927982789279093870263
:102CD00080938602813012E0910710F080E092E04C
:102CE0009B8B8A8B9D8B8C8B83E0898F8091C50217
:102CF00088878091C60289878091C7028A878091E0
:102D0000C8028B8781E090E00E94212182E48093B9
:102D10008E02198A188A10929802109297029CCFFC
:102D2000222309F2120FB5CF80E280938E020E9417
:102D3000A80F198E96CD8091CE0280FF20C024FD71
:102D40001EC088899989892B09F089CAC6014397D1
:102D50000E94212180918E02982F906190938E0283
:102D6000EF2819F0826180938E020E94A80F81E003
:102D700090E0998B888B88E0898F1B8E16CB85FF1E
:102D800014C08091D3029091D40298278927982764
:102D9000AC014B525D4F50939A0240939902E81A4E
:102DA000F90AF0929802E0929702409197025091AE
:102DB000980290918E024115510541F024FD06C004
:102DC000926090938E02CA010E9421218091CF02CD
:102DD000282F30E0322F22278091D002820F932FAC
:102DE000911D90938702809386022C893D89281734
:102DF000390710F0892B21F4309387022093860243
:102E000080918602909187029B8B8A8B80918E02A3
:102E1000837009F424CA20CF84FF0AC01092940260
:102E20001092930281E090E0998B888B84E0A4CF8C
:102E3000209193023091940221153105B9F080FF61
:102E400002C0198A188A88899989009789F48A8921
:102E50009B898217930720F49093940280939302A6
:102E60008091930290919402998B888B1B8EACCAAF
:102E70009093940280939302F9CF80918E0281FF08
:102E8000EEC988E290E0909398028093970280E1E7
:102E9000B5CA80918E0280FFE2C9198E80E131CEE1
:102EA000E114F10419F0C7010E94212180918E02E2
:102EB00081709091CE0290FF15C0882381F087E049
:102EC000898F1A8E198A188A81E090E00E94212148
:102ED00080E180938E020E94A80F80E167CA86E09D
:102EE000898FF2CF882399F085E0898F198A188A13
:102EF000B6C9E114F10419F0C7010E9421218091A3
:102F0000CE0280FF04C087E0898F1A8EDDCFEF28C4
:102F100021F7A5C980918E0280FFA1C987E0898F22
:102F20001A8E9DC982E08093CF021092D0020BCD01
:102F3000CF93DF93EC012C853D852115310529F4D4
:102F400090E080E0DF91CF910895EA89EE23C1F30C
:102F500081E08B8B85E0E89FF0011124E859FB4F5D
:102F60008E859F8507969383828330938902209371
:102F7000880285E00E94CA10809197029091980281
:102F8000892BF1F2CE010E960E940B0F81E090E0AA
:102F9000D9CF8F929F92AF92BF92CF92DF92EF9252
:102FA000FF92CF93DF9380917905882309F41FC1A5
:102FB000D0917D02D11151C089E30E9492038823F0
:102FC00009F449C060917105709172056B0126E0AA
:102FD000C20ED11CC11438E0D30628F06B014AEFB1
:102FE000C41A47E0D40A80E00E94E20260E08AE36B
:102FF0000E947403E82E60E08AE30E947403F82EB6
:10300000F0927205E092710560E08AE30E94740319
:10301000B82E60E08AE30E947403C82F60E08AE360
:103020000E947403A82E40E46EE180E80E94AA0288
:10303000A7FEE8C0E11458E0F50608F0E3C0D0921E
:103040007405C09273059C2F8B2D04979093760581
:1030500080937505DFEFD0937D02F0907D02FF2015
:1030600009F472C081E080937E028F2D0E948A0253
:10307000EC019093980280939702892B09F4EFC09A
:1030800042E650E06FE972E08F2D0E942E03C0905F
:10309000AB02D090AC0288E0C816D10409F0CDC0D4
:1030A000F0927F022E97D0939802C09397022091BE
:1030B000B9023091BA02E0915C03F0915D03C9015D
:1030C0008E279F27409154035091550384239523C5
:1030D000892B49F54091BB025091BC0260915E037F
:1030E00070915F03CA0186279727A0915603B0917C
:1030F00057038A239B23892BB1F48091BD029091C1
:10310000BE02E817F90709F080C08091BF029091D4
:10311000C0026817790709F078C065EA72E089EBA8
:1031200092E00E945A0D81E00E94CA10809197029D
:1031300090919802892B21F00E94CF0D0E94B80631
:1031400080917E0280FD8BC00E944A016B017C0150
:103150008091800590918105A0918205B0918305B1
:1031600046015701881A990AAA0ABB0AC7EED3E09A
:10317000D0939002C0938F02B7FC08C182E00E94F6
:10318000CA108091970290919802892B21F00E9499
:10319000CF0D0E94B8066E9634E0CF35D30741F7C5
:1031A000B7FC25C04AEFC40ED11CE11CF11CC09233
:1031B0008005D0928105E0928205F0928305C9EBEB
:1031C000D3E0D0938902C093880285E00E94CA10A0
:1031D0008091970290919802892B21F089859A8598
:1031E0000E940B0F2B9653E0C53ED50751F7DF9198
:1031F000CF91FF90EF90DF90CF90BF90AF909F90D6
:103200008F9008950E94580326CFE0E6F3E080E017
:10321000883019F48093B80386CF608171812617B6
:10322000370741F4628173814617570719F4809379
:10323000B80373CF8F5F3B96EBCF28E0C21626E032
:10324000D20669F41092980210929702AA9760F43D
:103250008091970290919802892B09F06FCF0E947C
:10326000580310927D0270CF8091B3029091B40206
:10327000811531E0930701F18115924049F72091C2
:10328000C5023091C60280915C0390915D032817BE
:103290003907F1F62091C7023091C80280915E0390
:1032A00090915F032817390799F665EB72E08BEB75
:1032B00092E00E945A0DCCCFE090C502F090C60279
:1032C00080915C0390915D03E816F90609F6C091C0
:1032D000C702D091C80280915E0390915F03C81726
:1032E000D90709F0B5CF65EB72E08BEB92E00E9455
:1032F0005A0D80E092E09093B4028093B30286E08E
:10330000E5EBF2E0AFEBB2E001900D928A95E1F7C8
:1033100086E0EAE7F5E0A5EBB2E001900D928A9530
:10332000E1F786E0EAE7F5E0A5EAB2E001900D9268
:103330008A95E1F786E0EFEBF2E0AFE9B2E00190C9
:103340000D928A95E1F78091BB029091BC02909317
:10335000C6028093C5028091BD029091BE029093F7
:10336000C8028093C702F092BC02E092BB02D093E5
:10337000BE02C093BD02D092AC02C092AB028AE200
:1033800090E0909398028093970262CFEC8DFD8D30
:10339000309709F400CF86859785A089B189A70168
:1033A0009601281B390B4A0B5B0BDA01C901B7FDEB
:1033B000F2CE83E00E94CA100E944A01E0918F027F
:1033C000F0919002048CF58DE02D665F7F4F8F4F5A
:1033D0009F4F66877787808B918BD3CECF93DF9378
:1033E000EC010E94C91789890E946A02198ADF913B
:1033F000CF9108950F931F93CF93DF931F92CDB773
:10340000DEB78C010E94C917F8018189882389F0F1
:1034100041E050E0BE016F5F7F4F0E942E03019795
:1034200041F4898190E00F90DF91CF911F910F912E
:1034300008958FEF9FEFF7CFEF92FF920F931F93B7
:10344000CF93DF937C018B01EA010E94C917F7013A
:103450008189882369F1AE01B8010E942E038C0195
:10346000F701C1898C2F0E948A028017910769F4A5
:103470008C2F0E946A02F701118AC801DF91CF9157
:103480001F910F91FF90EF90089585E0C89FF00184
:103490001124E859FB4F80819181800F911F918306
:1034A000808382819381801B910B93838283E5CFFC
:1034B00080E090E0E3CFCF93DF93EC010E94C91747
:1034C0008989DF91CF910C948A02CF93DF93EC012D
:1034D0000E94C917898981110E946A028889898B93
:1034E000188ADF91CF910C948A02CF92DF92EF92EB
:1034F000FF920F931F93CF93DF9300D000D0CDB7EF
:10350000DEB78C017B016A010E94C917D7011296B0
:103510008C91129781110EC013968C911397811183
:1035200009C014968C911497811104C015968C9142
:103530008823E9F0C114D104D1F0D8011C96ED9193
:10354000FC91D70112962D913C9113973A832983D0
:1035500014968D919C919C838B837C2D6D2D30973F
:1035600079F1778366833183208393838283F801A3
:1035700084859585892BB1F18289811133C08EE0D4
:1035800096E00E943E04D80152968C9352972BE20B
:1035900030E01F963C932E931E9721E090E081111E
:1035A00001C020E0822F0F900F900F900F90DF91BD
:1035B000CF911F910F91FF90EF90DF90CF900895E2
:1035C000CE0101960E94D00AF80195878487009762
:1035D00049F09801225F3F4FDC011A963C932E93ED
:1035E0001997C5CF80E090E0DECF4F925F926F9247
:1035F0007F928F929F92AF92BF92CF92DF92EF9283
:10360000FF920F931F93CF93DF93CDB7DEB76397EE
:103610000FB6F894DEBF0FBECDBF6C017B013A013F
:10362000FB01DB018D91882309F444C08E32D1F374
:1036300080538A30B8F3F6014281538164817581E9
:103640008091940690919506A0919606B091970668
:10365000481759076A077B0709F455C28601085FB6
:103660001F4F0E944A016F7077277C5FC8010E943C
:103670003A0B813009F04CC283E891E09A83898348
:10368000F60182819381A481B5818B839C83AD8374
:10369000BE8345E350E0BE016F5F7F4FC8010E94CB
:1036A000751A892B09F057C0F12CE12CC8010E9432
:1036B0005F0B39C030E020E090E080E05AE04191BB
:1036C000442309F1843091050CF0B5CF4E3271F4EA
:1036D0002F3F310511F00CF0AECFD301A80FB91F69
:1036E00012962C93019630E020E0E9CF529FB00172
:1036F000539F700D1124242F440F330B2053310995
:10370000260F371FDCCF2F3F310511F00CF093CF80
:10371000843091050CF08FCF680E791EF30122835F
:10372000EE24E394F12CC70163960FB6F894DEBF44
:103730000FBECDBFDF91CF911F910F91FF90EF9002
:10374000DF90CF90BF90AF909F908F907F906F90C1
:103750005F904F9008950E944A01F6017783668337
:1037600042E050E0B6016A5F7F4FC8010E94A205A7
:1037700081E090E09A83898342E050E0BE016F5F70
:103780007F4FC8010E94A20580E091E09A8389835F
:1037900042E050E0BE016F5F7F4FC8010E94A2056A
:1037A0001A82198242E050E0BE016F5F7F4FC8016C
:1037B0000E94A20542E050E0BE016F5F7F4FC8014A
:1037C0000E94A20542E050E0BE016F5F7F4FC8013A
:1037D0000E94A2055701F7018081882301F175013C
:1037E000F70181912F01882311F08E32B1F4470146
:1037F0008A189B081814190474F48D8641E050E06F
:10380000BE01635F7F4FC8010E94A205A401B501FC
:10381000C8010E94A2055201DECF7201E1CF1D86D0
:1038200041E050E0BE01635F7F4FC8010E94A205E6
:10383000E12CFF24F394FA82E98242E050E0BE01D9
:103840006F5F7F4FC8010E94A205FA82E98242E0C1
:1038500050E0BE016F5F7F4FC8010E94A205C80102
:103860000E949817892B09F41FCFA3E0AA2EB12C30
:10387000230122E0420E511C26C0F60162807380B3
:1038800084809580B801CE0101960E945F058B81EE
:103890009C81AD81BE81681679068A069B0629F453
:1038A000C8010E945005C59759F1FEEFEF2EFF2485
:1038B000FA94E1E0AE1AB10809F4F8CEFFEFEF1682
:1038C000FF0609F0F3CE0E944A013B014C01C801FA
:1038D0000E94651A1816190684F20E944A01661998
:1038E000770988099909693873418105910508F0BC
:1038F00001C162E370E080E090E00E941801E7CF30
:10390000C8010E945B1A0C970CF4F8C04CE050E020
:10391000BE016F5F7F4FC8010E94BC088B819C81F4
:103920009827892798279A8B898BF601468157819A
:1039300029813A814217530711F497FD08C0C80145
:103940000E94EE19ECEFEE2EFF24FA94B2CF8F70A6
:103950009270892B41F0C8010E94EE197BEFE72E8F
:10396000FF24FA94A6CF6F80788476246724762487
:10397000F12CE12C61147104D1F4C8010E94EE19FC
:103980006AEFE62EFF24FA9494CF8D85811117C03B
:10399000C8010E948505C8010E948505C8010E94D2
:1039A0008505C8010E948505FFEFEF1AFF0A8D818A
:1039B0009E81982789279827E816F906A8F441E000
:1039C00050E0BE01635F7F4FC8010E94BC088D8537
:1039D0008823D9F28D859FEF980F9D878823A9F2C0
:1039E000C8010E948505F6CF912C812C41E050E062
:1039F000BE016D5E7F4FC8010E94BC088B89982F65
:103A0000907C61F4882389F08B899FEF980F9B8BC2
:103A1000882341F0C8010E948505F6CFC8010E94A5
:103A200085051B8A8B898111E1CF42E050E0BE0100
:103A3000615F7F4FC8010E94BC0842E050E0BE01B8
:103A4000635F7F4FC8010E94BC08C8010E948505C2
:103A5000C8010E948505C8010E948505C8010E9411
:103A6000850542E050E0BE016F5E7F4FC8010E94B5
:103A7000BC088F85988981159140E1F48D859E85DC
:103A800081159140B9F489899A898115944041F052
:103A9000C8010E94EE1957EFE52EFF24FA9409CFD2
:103AA00044E050E0B201C8010E94BC08EE24E39457
:103AB000F12CFFCEF12CE12C89899A89982789274E
:103AC0009827E816F90638F4C8010E9485052FEFFB
:103AD000E21AF20AF1CF8FEF881A980A8614970437
:103AE00009F084CFC8010E94EE1936EFE32EFF24BF
:103AF000FA94DFCEEE24EA94FE2CDBCE9DEFE92E85
:103B0000FF24FA94D6CE8EEFE82EFF24FA940BCE43
:103B1000F12CE12C08CEAF92BF92CF92DF92EF92C0
:103B2000FF920F931F93CF93DF93CDB7DEB7A89784
:103B30000FB6F894DEBF0FBECDBF7C015B016A01FA
:103B400003E811E01A8309831B821C821D821E82F6
:103B5000CE0109960E94800B1CA30BA31DA21EA2DE
:103B60001FA218A68091820690918306A0918406D8
:103B7000B09185068F8F98A3A9A3BAA38B839C834A
:103B8000AD83BE8318861F82AE014D5D5F4FB501C8
:103B9000CE0101960E94F51A81309105B1F4D7014A
:103BA000ED91FC910488F589E02D1E8F0D8F8DA17C
:103BB0009EA1AFA1B8A58F8F98A3A9A3BAA3A60170
:103BC000BE01635E7F4FC7010995A8960FB6F894B2
:103BD000DEBF0FBECDBFDF91CF911F910F91FF9040
:103BE000EF90DF90CF90BF90AF900895AF92BF92CB
:103BF000CF92DF92EF92FF920F931F93CF93DF93B9
:103C0000CDB7DEB7A8970FB6F894DEBF0FBECDBF15
:103C10007C015B016A0103E811E01A8309831B82BE
:103C20001C821D821E82CE0109960E94800B1CA35D
:103C30000BA31DA21EA21FA218A68091820690911E
:103C40008306A0918406B09185068B839C83AD8307
:103C5000BE8318861F82AE014D5D5F4FB501CE0158
:103C600001960E94F51A81309105B1F4D701ED91CA
:103C7000FC910684F785E02D1E8F0D8F8DA19EA1EE
:103C8000AFA1B8A58F8F98A3A9A3BAA3A601BE011F
:103C9000635E7F4FC7010995A8960FB6F894DEBF03
:103CA0000FBECDBFDF91CF911F910F91FF90EF908D
:103CB000DF90CF90BF90AF900895CF93DF93EC014A
:103CC0004C815D81AFE5B4E090E080E0282F843046
:103CD000910521F484E0809367040EC0FC016D918E
:103CE0007D910196672B91F720936704EE0FFF1FDC
:103CF000E15AFB4F518340830E94C91781E08E83B4
:103D0000DF91CF910895CF93DF93EC010E94C91703
:103D1000EC85FD8587818823D9F0DF01189621E0A5
:103D20008D91811110C0215030E0322F2227330FA6
:103D300084859585280F391F80E09AE0821B930BBC
:103D4000DF91CF9108952F5F253051F724E0ECCF1C
:103D500080E09AE0F5CFAF92BF92CF92DF92EF92E0
:103D6000FF920F931F93CF938C015B017A016A013D
:103D70000E94C9170115110509F45DC0F801818180
:103D8000882309F458C0867009F055C03896C1E000
:103D90008191811133C0C150F801EC0FF11D878171
:103DA00081110DC080E092E00E943E04F801EC0F0A
:103DB000F11D87838823E1F2F80115861486A70197
:103DC0004C195D094A0D5B1DF801648575859601E6
:103DD000EC0FF11D87810E940E05C81AD90AF8015F
:103DE00024853585820F931F958784871C141D04B5
:103DF00054F4C43009F4BCCFCF5FD4CFCF5FC5300B
:103E000039F6C4E0C9CF0E944A01665F7F4F8F4FE9
:103E10009F4FF80166877787808B918BC7018C193C
:103E20009D09CF911F910F91FF90EF90DF90CF9060
:103E3000BF90AF90089590E080E0F3CF9F92AF9253
:103E4000BF92CF92DF92EF92FF920F931F93CF9387
:103E5000DF938C017B016A01C3E0D3E0B12CA12C7C
:103E60008EE1982E898180FF15C0E8819E9EF00129
:103E70001124E951FC4F24813581F8018481958119
:103E80002817390739F4A601B701CE010E94AB1EED
:103E9000A80EB91E6296F3E0CB34DF0718F3C50114
:103EA000DF91CF911F910F91FF90EF90DF90CF9016
:103EB000BF90AF909F900895FC01848595850C94E8
:103EC000AB1ECF93DF931F92CDB7DEB7698341E07E
:103ED00050E0BE016F5F7F4FFC01848595850E9495
:103EE000AB1E0F90DF91CF910895CF93DF93EC013C
:103EF0000E94C917EC85FD85309739F0818182FFDA
:103F000008C081E09281911101C080E0DF91CF91E2
:103F1000089581E0FBCFCF93DF93EC018C859D85E5
:103F2000009769F0FC012181222349F002960E944A
:103F30004207EC85FD85818182FF07C011821D86C5
:103F40001C86DF91CF910C94C91782608183F7CFD3
:103F5000CF92DF92EF92FF920F931F93CF93DF9355
:103F60008C01EB016A01DC01ED91FC910488F5897B
:103F7000E02D0995EA80FB806C817D815C2D4D2DC3
:103F80008091E5039091E60301968115BDE79B07BB
:103F900010F080E090E1382F292FE7EEF3E0DF0109
:103FA000C0E0C430D1F49093E6038093E50310920F
:103FB000670480E0D0E0C0E08430F1F480936704CF
:103FC000209711F590E080E0DF91CF911F910F9144
:103FD000FF90EF90DF90CF9008955996DC9159971C
:103FE000DD2339F01496CD90DC901597C216D306D8
:103FF00059F2CF5F5E96D5CFAE2F9F2FB18DB11105
:104000003CC080936704EF0182E0898F80918A022F
:104010008C8780918B028D8780918C028E87809116
:104020008D028F8780E092E09B8B8A8B9D8B8C8B9F
:1040300081E090E0998B888B1B8E8A8F83E0888F3C
:104040001E8A80E18F8B3D832C835F834E83F982B0
:10405000E8827B836A83898D8F7009F4B3CF0E94D5
:10406000C917898D8F708330B1F78C8D9D8DF801C4
:104070009587848781E090E0A7CFB73031F420970F
:1040800031F0D28CBA8DBD1510F0AC2F9D2F8F5F03
:104090007E96CA2FD92F90CF1F920F920FB60F92F4
:1040A00011242F933F938F939F93AF93BF9380914E
:1040B0004C0390914D03A0914E03B0914F0330916A
:1040C0004B0323E0230F2D3758F50196A11DB11D99
:1040D00020934B0380934C0390934D03A0934E0386
:1040E000B0934F038091500390915103A0915203DC
:1040F000B09153030196A11DB11D8093500390937D
:104100005103A0935203B0935303BF91AF919F917A
:104110008F913F912F910F900FBE0F901F90189588
:1041200026E8230F0296A11DB11DD2CF1F920F9238
:104130000FB60F9211242F933F934F935F936F937A
:104140007F938F939F93AF93BF93EF93FF9384E8F5
:1041500095E00E94DB01FF91EF91BF91AF919F919C
:104160008F917F916F915F914F913F912F910F9020
:104170000FBE0F901F9018951F920F920FB60F92BF
:1041800011242F938F939F93EF93FF93E0919405C6
:10419000F09195058081E0919A05F0919B0582FD53
:1041A0001BC0908180919D058F5F8F7320919E052C
:1041B000821741F0E0919D05F0E0EC57FA4F958FA2
:1041C00080939D05FF91EF919F918F912F910F907B
:1041D0000FBE0F901F9018958081F4CFFC013381A2
:1041E000360F30938502A72FBB2792819A0F9093A9
:1041F00084022181209383024081409382029A1796
:104200001B0648F481E0820F80938302811103C072
:104210004F5F4093820277273617170688F49F5F17
:104220009093840291110CC0809183028F5F8093E0
:104230008302811105C0809182028F5F8093820288
:104240000895CF93DF93C0918F02D0919002BC016B
:10425000CE0108960E94EE20E2E8F2E08081888795
:104260008181898782818A8783818B87DF91CF9142
:104270000895EF92FF920F931F93CF93DF93EC017A
:104280007B01198218821B821A821D821C82FB010B
:1042900001900020E9F731978F01061B170BB80139
:1042A0006F5F7F4F90E080E00E9420280097B9F078
:1042B000998388831B830A832C813D81232B11F4EE
:1042C000FC0110821D830C83B70188819981DF91E5
:1042D000CF911F910F91FF90EF900C94ED28888162
:1042E0009981009711F00E949727198218821D82E8
:1042F0001C821B821A82DF91CF911F910F91FF9038
:10430000EF900895CF93DF93E4E8F5E013821282F3
:1043100088EE93E0A0E0B0E084839583A683B78322
:1043200081E691E09183808385EC90E09587848796
:1043300084EC90E09787868780EC90E0918B808B6F
:1043400081EC90E0938B828B82EC90E0958B848B58
:1043500086EC90E0978B868B118E128E138E148EC6
:10436000E1E2F6E0C3E8D1E0D183C0831282138298
:1043700014821582E7E2F6E0D183C08312821382B1
:1043800014821582E6E8F6E0D183C083128213829C
:1043900014821582E0E8F6E0D183C0831282138292
:1043A000148215828CE696E00E94800BECE8F6E021
:1043B000D183C0831282138214821582E2E9F6E06F
:1043C000D183C0831282138214821582E8E9F6E059
:1043D000D183C0831282138214821582E3ECF6E04B
:1043E000D183C0831282138214821582EDEBF6E032
:1043F000D183C08380EC828388EA838383E48483CF
:1044000084EA8583E6EBF6E01382128283E791E08B
:104410009183808380E090E595838483168264E9AC
:1044200071E080EB96E00E9439216AEA71E08AEA45
:1044300096E00E94392165EB71E084EA96E00E94E3
:10444000392163EC71E08EE996E0DF91CF910C9415
:104450003921CF93DF93CDB7DEB72E970FB6F894FF
:10446000DEBF0FBECDBF789484B5826084BD84B5B5
:10447000816084BD85B5826085BD85B5816085BD5F
:1044800080916E00816080936E0010928100809117
:10449000810082608093810080918100816080939F
:1044A0008100809180008160809380008091B100C4
:1044B00084608093B1008091B00081608093B000EF
:1044C00080917A00846080937A0080917A00826083
:1044D00080937A0080917A00816080937A00809145
:1044E0007A00806880937A001092C100E091940570
:1044F000F091950582E08083E0919005F09191051F
:104500001082E0919205F09193058FEC80831092D8
:104510009C05E0919805F091990586E08083E091F3
:104520009605F0919705808180618083E0919605E2
:10453000F0919705808188608083E0919605F091E5
:104540009705808180688083E0919605F0919705BA
:1045500080818F7D808303E811E01A830983809135
:10456000BF069091C006A091C106B091C2068B8390
:104570009C83AD83BE83CE0101960E94C30886EB67
:1045800096E00E945D1E6BED71E084E895E00E946C
:10459000580D30915C0320915D0390915E038091F2
:1045A0005F031A8309833B832C839D838E8364E896
:1045B00075E0CE0101960E94FB0B61E971E084E891
:1045C00095E00E94A00B80E4382E9EE1E92E28EEB3
:1045D000422E23E0522E612C712C3FE3C32E31E09A
:1045E000D32E30927C0080917A00806480937A0090
:1045F00080917A0086FDFCCF6091780070917900FF
:10460000072E000C880B990B0E94672420E030E0F5
:1046100040E85AE30E94C62420E030E040EA50E43B
:104620000E94C62420E030E048EC52E40E94C624F8
:104630004B015C0167EE71E084E895E00E94580D43
:1046400022E0B501A40184E895E00E94410C65EFE9
:1046500071E084E895E00E94270D68EF71E084E83E
:1046600095E00E94580D60EB76E084E895E00E94AA
:104670003B0D6FEF71E084E895E00E94580D6AEA07
:1046800076E084E895E00E943B0D65E072E084E806
:1046900095E00E94580D64EA76E084E895E00E9477
:1046A0003B0D65E172E084E895E00E94580D6EE9EB
:1046B00076E084E895E00E943B0D68E873E180E0D5
:1046C00090E00E9418010E94C9178091BA0690914B
:1046D000BB06E3E0F3E02281222309F4CAC0218172
:1046E00020FF0CC0A081EA9ED0011124A951BC4F2B
:1046F00014964D915C914817590741F022FFB9C0BB
:10470000278130858217930709F0B3C01C821B8272
:104710004D825E826F827886DA82C982FE87ED875B
:10472000CE0101960E94751F082F882309F494C0BA
:104730006DE172E084E895E00E94270D102FCE0114
:1047400001960E94A208882309F476C0CE01019642
:104750000E946208892B99F3CE0101960E94A90755
:10476000F82E682F84E895E00E94FD018AE0F81297
:1047700091C0112319F368E272E0CE0101960E9404
:10478000270D68E372E0CE0101960E94270D60E5D7
:1047900072E0CE0101960E94270D61E971E0CE0121
:1047A00001960E94A00B67EE71E0CE0101960E9477
:1047B000580D22E0B501A401CE0101960E94410CE2
:1047C00065EF71E0CE0101960E94270D62E672E06E
:1047D000CE0101960E94270D68EF71E0CE0101968F
:1047E0000E94580D60EB76E0CE0101960E943B0DD1
:1047F0006FEF71E0CE0101960E94580D6AEA76E0F3
:10480000CE0101960E943B0D65E072E0CE0101965B
:104810000E94580D64EA76E0CE0101960E943B0D9D
:1048200065E172E0CE0101960E94580D6EE976E0D6
:10483000CE0101960E943B0D61E070E080E090E0C7
:104840000E941801CE0101960E948B1F67E672E05C
:1048500084E895E00E94270D80E090E0892B09F420
:10486000C0CE0E94C701882309F4BBCE0E9400007D
:10487000B8CE729623E0EB34F20708F42CCF1C82FA
:104880001B824D825E826F827886DA82C9821E86A2
:104890001D8646CF9DE0F91609F451CF10E04FCFA9
:1048A0008EE996E00E94980B84EA96E00E94980BAD
:1048B0008AEA96E00E94980B80EB96E00C94980BA5
:1048C0000E94A22408F481E00895E89409C097FBAF
:1048D0003EF490958095709561957F4F8F4F9F4FD7
:1048E0009923A9F0F92F96E9BB279395F69587951B
:1048F00077956795B795F111F8CFFAF4BB0F11F4DE
:1049000060FF1BC06F5F7F4F8F4F9F4F16C0882384
:1049100011F096E911C0772321F09EE8872F762FBA
:1049200005C0662371F096E8862F70E060E02AF0FB
:104930009A95660F771F881FDAF7880F96958795E7
:1049400097F90895990F0008550FAA0BE0E8FEEFBC
:1049500016161706E807F907C0F012161306E40743
:10496000F50798F0621B730B840B950B39F40A263C
:1049700061F0232B242B252B21F408950A2609F41A
:10498000A140A6958FEF811D811D08950E94D92415
:104990000C944A250E943C2538F00E94432520F0C3
:1049A000952311F00C9433250C94392511240C9483
:1049B0007E250E945B2570F3959FC1F3950F50E013
:1049C000551F629FF001729FBB27F00DB11D639FC1
:1049D000AA27F00DB11DAA1F649F6627B00DA11D67
:1049E000661F829F2227B00DA11D621F739FB00D0D
:1049F000A11D621F839FA00D611D221F749F33277D
:104A0000A00D611D231F849F600D211D822F762F15
:104A10006A2F11249F5750409AF0F1F088234AF0F2
:104A2000EE0FFF1FBB1F661F771F881F915050405E
:104A3000A9F79E3F510580F00C9433250C947E25F8
:104A40005F3FE4F3983ED4F3869577956795B795E5
:104A5000F795E7959F5FC1F7FE2B880F911D9695FF
:104A6000879597F9089597F99F6780E870E060E06F
:104A700008959FEF80EC089500240A9416161706F7
:104A800018060906089500240A941216130614063F
:104A900005060895092E0394000C11F4882352F0A2
:104AA000BB0F40F4BF2B11F460FF04C06F5F7F4F5A
:104AB0008F4F9F4F089557FD9058440F551F59F041
:104AC0005F3F71F04795880F97FB991F61F09F3FFB
:104AD00079F087950895121613061406551FF2CF24
:104AE0004695F1DF08C0161617061806991FF1CF74
:104AF00086957105610508940895E894BB2766279B
:104B00007727CB0197F908952F923F924F925F92AA
:104B10006F927F928F929F92AF92BF92CF92DF92CD
:104B2000EF92FF920F931F93CF93DF93CDB7DEB732
:104B3000CA1BDB0B0FB6F894DEBF0FBECDBF0994C6
:104B40002A88398848885F846E847D848C849B841D
:104B5000AA84B984C884DF80EE80FD800C811B812B
:104B6000AA81B981CE0FD11D0FB6F894DEBF0FBE5A
:104B7000CDBFED010895A1E21A2EAA1BBB1BFD01BA
:104B80000DC0AA1FBB1FEE1FFF1FA217B307E4072C
:104B9000F50720F0A21BB30BE40BF50B661F771F84
:104BA000881F991F1A9469F7609570958095909564
:104BB0009B01AC01BD01CF0108955058BB27AA2726
:104BC0000E94F5250C944A250E943C2538F00E944D
:104BD000432520F039F49F3F19F426F40C9439252D
:104BE0000EF4E095E7FB0C943325E92F0E945B253A
:104BF00058F3BA17620773078407950720F079F412
:104C0000A6F50C947D250EF4E0950B2EBA2FA02D61
:104C10000B01B90190010C01CA01A0011124FF2769
:104C2000591B99F0593F50F4503E68F11A16F04064
:104C3000A22F232F342F4427585FF3CF4695379563
:104C40002795A795F0405395C9F77EF41F16BA0B28
:104C5000620B730B840BBAF09150A1F0FF0FBB1FD6
:104C6000661F771F881FC2F70EC0BA0F621F731F1F
:104C7000841F48F4879577956795B795F7959E3F7C
:104C800008F0B0CF9395880F08F09927EE0F97950D
:104C9000879508950E945E260C944A250E9443251C
:104CA00058F00E943C2540F029F45F3F29F00C9415
:104CB000332551110C947E250C9439250E945B25D7
:104CC00068F39923B1F3552391F3951B550BBB273B
:104CD000AA2762177307840738F09F5F5F4F220F80
:104CE000331F441FAA1FA9F335D00E2E3AF0E0E877
:104CF00032D091505040E695001CCAF72BD0FE2FC1
:104D000029D0660F771F881FBB1F26173707480754
:104D1000AB07B0E809F0BB0B802DBF01FF2793580C
:104D20005F4F3AF09E3F510578F00C9433250C9478
:104D30007E255F3FE4F3983ED4F38695779567959B
:104D4000B795F7959F5FC9F7880F911D9695879541
:104D500097F90895E1E0660F771F881FBB1F621760
:104D600073078407BA0720F0621B730B840BBA0B1E
:104D7000EE1F88F7E09508950E94632588F09F57FD
:104D800098F0B92F9927B751B0F0E1F0660F771F6F
:104D9000881F991F1AF0BA95C9F714C0B13091F065
:104DA0000E947D25B1E008950C947D25672F782F12
:104DB0008827B85F39F0B93FCCF38695779567952A
:104DC000B395D9F73EF490958095709561957F4F96
:104DD0008F4F9F4F08950E94A22408F48FEF0895EB
:104DE0000E94A224880B990B0895EE0FFF1F0590D7
:104DF000F491E02D09940F931F93CF93DF938230AA
:104E0000910510F482E090E0E091CB06F091CC06A1
:104E100030E020E0B0E0A0E0309799F421153105B2
:104E200009F44AC0281B390B24303105D8F58A8192
:104E30009B816115710589F1FB0193838283FE01DA
:104E400011C0408151810281138148175907E0F058
:104E50004817590799F4109761F012960C9312971E
:104E600013961C933296CF01DF91CF911F910F9132
:104E700008950093CB061093CC06F4CF211531058D
:104E800051F04217530738F0A901DB019A01BD0127
:104E9000DF01F801C1CFEF01F9CF9093CC068093E9
:104EA000CB06CDCFFE01E20FF31F819391932250E9
:104EB000310939832883D7CF2091C9063091CA069A
:104EC000232B41F42091090130910A013093CA0645
:104ED0002093C90620910701309108012115310561
:104EE00041F42DB73EB740910B0150910C01241BAA
:104EF000350BE091C906F091CA06E217F307A0F45A
:104F00002E1B3F0B2817390778F0AC014E5F5F4F1F
:104F10002417350748F04E0F5F1F5093CA06409381
:104F2000C906819391939FCFF0E0E0E09CCFCF93AF
:104F3000DF930097E9F0FC01329713821282A0916F
:104F4000CB06B091CC06ED0130E020E01097A1F443
:104F500020813181820F931F2091C9063091CA06AA
:104F60002817390709F061C0F093CA06E093C90613
:104F7000DF91CF910895EA01CE17DF07E8F54A8166
:104F80005B819E0141155105B1F7E901FB83EA837D
:104F900049915991C40FD51FEC17FD0761F4808129
:104FA00091810296840F951FE901998388838281FC
:104FB00093819B838A83F0E0E0E012968D919C912F
:104FC00013970097B9F52D913C911197CD01029659
:104FD000820F931F2091C9063091CA0628173907FE
:104FE00039F6309751F51092CC061092CB06B0935B
:104FF000CA06A093C906BCCFD383C2834081518126
:10500000840F951FC817D90761F44E5F5F4F8881E1
:105010009981480F591F518340838A819B819383D3
:1050200082832115310509F0B0CFF093CC06E093CF
:10503000CB069ECFFD01DC01C0CF13821282D7CFF9
:10504000B0E0A0E0E6E2F8E20C9486258C0100973F
:1050500051F4CB010E94FB268C01C801CDB7DEB70D
:10506000E0E10C94A225FC01E60FF71F9C01225001
:105070003109E217F30708F49DC0D901CD91DC9105
:105080001197C617D70798F0C530D10530F3CE0178
:1050900004978617970708F3C61BD70B2297C1936F
:1050A000D1936D937C93CF010E949727D6CF5B015C
:1050B000AC1ABD0A4C018C0E9D1EA091CB06B0917E
:1050C000CC06512C412CF12CE12C109731F580911C
:1050D000C9069091CA068815990509F05CC0461664
:1050E000570608F058C08091070190910801009779
:1050F00041F48DB79EB740910B0150910C01841B78
:10510000950BE817F90708F055C0F093CA06E0932D
:10511000C906F90171836083A0CF8D919C9111978D
:1051200012966C90129713967C901397A815B90558
:1051300059F56C0142E0C40ED11CCA14DB0420F105
:10514000AC014A195B09DA011296159780F0628268
:10515000738251834083D9016D937C93E114F104F0
:1051600071F0D7011396FC93EE93129776CF2296A7
:105170008C0F9D1FF90191838083F301EFCFF09392
:10518000CC06E093CB0669CF4816590608F42C01EB
:105190007D01D3019ACFCB010E94FB267C010097B1
:1051A00049F0AE01B8010E94DD28C8010E9497278E
:1051B000870153CF10E000E050CFFB01DC0102C0BB
:1051C00001900D9241505040D8F70895DC0101C084
:1051D0006D9341505040E0F70895FB01DC010190D0
:1051E0000D920020E1F7089510E0CDE5D0E004C075
:1051F000FE010E94F5262196CE35D107C9F7F89415
:10520000FFCFFFDEADBEEFFEED0000CD068000005B
:10521000000000BA05A205F705EE195B1A8505FA2C
:10522000193A0BD0055F0B751A8B1D9817651A1C60
:105230001ABC085F055005FFFFFFFFFFFF000000DD
:1052400000611F5C1F831E6A076208A9077F07A809
:105250001FF61DC6078B1FA208751F9008B2080015
:10526000000000FD015D018A014A02BB019901AD08
:105270000100000000D2051E1FF705F6055D1EE8BF
:105280000500000000FB0B6E616E00696E66006F2A
:105290007666000D0A00466572727920416E646878
:1052A000696B612050726174616D61003134363216
:1052B00031303030363000323220417072696C202B
:1052C000323030320079616E676D616E61636F629A
:1052D0006140676D61696C2E636F6D20005365726C
:1052E0007665722049503A200054656D7065726190
:1052F000747572653A20002043004E616D613A205A
:10530000004E494D3A200054616E6767616C204C35
:10531000616869723A2000456D61696C3A20004EFF
:10532000657720636C69656E7400485454502F3162
:105330002E3120323030204F4B00436F6E74656E3B
:10534000742D547970653A20746578742F68746D83
:105350006C00436F6E6E656374696F6E3A20636CA8
:105360006F7365003C62723E00436C69656E742029
:0E537000646973636F6E6E656374656400003C
:107E0000112484B714BE81FFF0D085E080938100F7
:107E100082E08093C00088E18093C10086E0809377
:107E2000C20080E18093C4008EE0C9D0259A86E02C
:107E300020E33CEF91E0309385002093840096BBD3
:107E4000B09BFECF1D9AA8958150A9F7CC24DD24C4
:107E500088248394B5E0AB2EA1E19A2EF3E0BF2EE7
:107E6000A2D0813461F49FD0082FAFD0023811F036
:107E7000013811F484E001C083E08DD089C08234E0
:107E800011F484E103C0853419F485E0A6D080C0E4
:107E9000853579F488D0E82EFF2485D0082F10E0AE
:107EA000102F00270E291F29000F111F8ED06801E7
:107EB0006FC0863521F484E090D080E0DECF843638
:107EC00009F040C070D06FD0082F6DD080E0C81688
:107ED00080E7D80618F4F601B7BEE895C0E0D1E017
:107EE00062D089930C17E1F7F0E0CF16F0E7DF06D8
:107EF00018F0F601B7BEE89568D007B600FCFDCFD4
:107F0000A601A0E0B1E02C9130E011968C91119780
:107F100090E0982F8827822B932B1296FA010C0160
:107F200087BEE89511244E5F5F4FF1E0A038BF0790
:107F300051F7F601A7BEE89507B600FCFDCF97BE46
:107F4000E89526C08437B1F42ED02DD0F82E2BD052
:107F50003CD0F601EF2C8F010F5F1F4F84911BD097
:107F6000EA94F801C1F70894C11CD11CFA94CF0C13
:107F7000D11C0EC0853739F428D08EE10CD085E9AC
:107F80000AD08FE07ACF813511F488E018D01DD067
:107F900080E101D065CF982F8091C00085FFFCCF94
:107FA0009093C60008958091C00087FFFCCF809118
:107FB000C00084FD01C0A8958091C6000895E0E648
:107FC000F0E098E1908380830895EDDF803219F02E
:107FD00088E0F5DFFFCF84E1DECF1F93182FE3DFCA
:107FE0001150E9F7F2DF1F91089580E0E8DFEE27F6
:047FF000FF270994CA
:027FFE00040479
:00000001FF
